:020000040800F2
:1000000000000220B9020008BF020008C302000875
:1000100035030008390300088103000800000000D0
:10002000000000000000000000000000F11B0008BC
:10003000CD03000800000000B11C0008151D0008D9
:10004000E5030008E5030008E5030008E5030008F0
:10005000E5030008E5030008E5030008E5030008E0
:10006000E5030008E5030008E5030008E5030008D0
:10007000E5030008E5030008E5030008E5030008C0
:10008000E5030008E5030008E5030008E5030008B0
:10009000E5030008E5030008E5030008E5030008A0
:1000A000E5030008E5030008E5030008E503000890
:1000B000E5030008E5030008E5030008E503000880
:1000C000E5030008E5030008E5030008E503000870
:1000D000E5030008E5030008E5030008E503000860
:1000E000E5030008E5030008E5030008E503000850
:1000F000E5030008E5030008E5030008E503000840
:10010000E5030008E5030008E5030008E50300082F
:10011000E5030008E5030008E5030008E50300081F
:10012000E5030008E5030008E5030008E50300080F
:10013000E5030008E5030008E5030008E5030008FF
:10014000E5030008E5030008E5030008E5030008EF
:10015000E5030008E5030008E5030008E5030008DF
:10016000E5030008E5030008E5030008E5030008CF
:10017000E5030008E5030008E503000800000000AF
:10018000E5030008E503000800B583B001F084F83A
:10019000384B394A1360394A1360394906E052F83E
:1001A000041B43F8041B9842F9D86146354B994229
:1001B00005D20A684B6801F10C0C8868F3E72E4BF6
:1001C0001A68314B9A4200D0FEE72C4B1A682F4B2D
:1001D0009A42F9D1274B2E4A13602E4A13602E4AB9
:1001E00000E002462D4B9A4209D2104650F8083BD7
:1001F00051689942F5D9002243F8042BF9E7244BC2
:100200001B6813B9234B1B6803B1FEE701F0F8F834
:10021000694601A800F086FE214C224BE41AA41086
:10022000002504E01F4B53F8253098470135AC42B8
:10023000F8DC1D4C1D4BE41AA410002504E01B4BF8
:1002400053F8253098470135AC42F8DC0099019805
:1002500001F04EFA0546164C164BE41AA41004E0C1
:10026000013C144B53F824309847002CF8DC284606
:1002700000F0F4FDBABADECA00000020AC00002095
:10028000E8030008000400087856341232547698C7
:10029000B00000204C3001200004000810040008C9
:1002A00010040008100400081004000810040008DE
:1002B000100400081004000808B5FFF765FF00BE31
:1002C000FEE71EF0040F0CBFEFF30880EFF3098088
:1002D0007146414A10472DE9F04182B004460D466F
:1002E000124B5F6BD3F838809E6A1B6B13F0020FC2
:1002F00003D00E4BDB6A002B0BDB0D4800F0A8FE91
:10030000009543463A463146204600F0CBFE00BEFB
:10031000FEE74BF6AB6100F03FFF0028EDD0034B4A
:100320004FF00042DA6202B0BDE8F08100ED00E07B
:100330001C44000800BEFEE71EF0040F0CBFEFF3E4
:100340000880EFF309807146244A10472DE9F041F7
:1003500082B004460D46084B5F6BD3F838809E6A26
:10036000064800F075FE009543463A463146204661
:1003700000F098FE00BEFEE700ED00E02C4400080F
:100380001EF0040F0CBFEFF30880EFF309807146F5
:10039000134A10472DE9F04182B004460D46084B40
:1003A0005F6BD3F838809E6A064800F051FE0095D6
:1003B00043463A463146204600F074FE00BEFEE752
:1003C00000ED00E03844000800BEFEE700BEFEE796
:1003D00000BEFEE770470000D70200084D0300088A
:0803E0009503000800BEFEE7D2
:1003E800AC47000800000020B0000020AC4700081F
:1003F8000000001000000010B00000205030012064
:080408000000001000000010CC
:1004100010B504460E4B1A784FF47A73B3FBF2F31F
:100420000C4A1068B0FBF3F000F09CF868B90F2C90
:1004300001D901200AE0002221464FF0FF3000F0F0
:100440004BF8054B1C60002000E0012010BD00BFF0
:10045000040000200C0000200800002008B50B4B11
:100460001A6842F400721A601A6842F480621A60D4
:100470001A6842F480721A60032000F00FF80F200F
:10048000FFF7C6FF01F04EFA002008BD003C024015
:10049000014B1868704700BFB400002010B5044637
:1004A000C31E042B0FD80A4AD36823F4E0631B044D
:1004B0001B0C240204F4E064234343F0BF6343F4C1
:1004C0000033D36010BD9221024800F0A1FFEAE79B
:1004D00000ED00E04442000870B505460C461646A3
:1004E0000F2A25D80F2C28D81B4BDB68C3F3022317
:1004F000C3F10702042A28BF0422191D062921D9A5
:10050000033B4FF0FF3101FA02F224EA02049C405F
:10051000994026EA010644EA0602002D14DB120186
:10052000D2B205F1604505F5614585F8002370BD3F
:10053000AA210A4800F06CFFD4E7AB21074800F07D
:1005400067FFD1E70023DCE705F00F051201D2B207
:10055000034B5A55EBE700BF00ED00E044420008B2
:1005600014ED00E00138B0F1807F0BD24FF0E023B2
:100570005861054AF02182F8231000209861072273
:100580001A6170470120704700ED00E010B5044685
:10059000042800D040B9042C0CD04FF0E02213699D
:1005A00023F00403136110BD40F2C911054800F0A7
:1005B0002FFFF0E74FF0E022136943F004031361CB
:1005C000F1E700BF44420008002800F05B8270B5EC
:1005D00082B0044603680F2B39D8236813F0010F4B
:1005E0004DD063682BB1B3F5803F02D0B3F5A02F97
:1005F00032D1804B9B6803F00C03042B36D07D4B2B
:100600009B6803F00C03082B2BD06368B3F5803F85
:100610005FD0B3F5A02F62D0764B1A6822F48032F7
:100620001A601A6822F480221A606368002B60D076
:10063000FFF72EFF05466F4B1B6813F4003F1ED1DA
:10064000FFF726FF401B6428F5D9032021E2E821AB
:10065000694800F0DDFEC0E7ED21674800F0D8FEF4
:10066000C7E7644B5B6813F4800FCED0614B1B6807
:1006700013F4003F03D06368002B00F00582236869
:1006800013F0020F66D0E368012B41D823691F2BBA
:1006900044D8584B9B6813F00C0F4AD0554B9B68BD
:1006A00003F00C03082B3FD0E368002B77D0534BAB
:1006B00001221A60FFF7ECFE05464E4B1B6813F053
:1006C000020F63D1FFF7E4FE401B0228F5D9032097
:1006D000DFE1484A136843F480331360A5E7454BD4
:1006E0001A6842F480221A601A6842F480321A6052
:1006F0009BE7FFF7CDFE05463E4B1B6813F4003F1A
:10070000BDD0FFF7C5FE401B6428F5D90320C0E12A
:1007100040F21F11384800F07BFEB7E74FF49071AC
:10072000354800F075FEB4E7324B5B6813F4800F78
:10073000BAD1304B1B6813F0020F03D0E368012BD2
:1007400040F0A4812B4A136823F0F803216943EA9F
:10075000C1031360236813F0080F51D06369012BA4
:100760002FD863699BB3254B0122C3F8802EFFF776
:100770008FFE05461F4B5B6F13F0020F40D1FFF752
:1007800087FE401B0228F5D9032082E1194A13682D
:1007900023F0F803216943EAC1031360DAE7174B3A
:1007A00000221A60FFF774FE0546124B1B6813F017
:1007B000020FCFD0FFF76CFE401B0228F5D90320B3
:1007C00067E14FF4B0710C4800F022FEC9E70B4B13
:1007D0000022C3F8802EFFF75BFE0546054B5B6FDA
:1007E00013F0020F0CD0FFF753FE401B0228F5D97F
:1007F00003204EE1003802407842000800004742E2
:10080000236813F0040F7CD0A368012B01D9052BBA
:1008100038D1A44B1B6C13F0805F39D100230193B6
:10082000A04B1A6C42F080521A641B6C03F0805388
:100830000193019B01259C4B1B6813F4807F29D0F9
:10084000A368012B3AD0052B3ED0964B1A6F22F0AD
:1008500001021A671A6F22F004021A67A368002BBC
:100860003CD0FFF715FE06468E4B1B6F13F0020FB0
:1008700045D1FFF70DFE801B41F288339842F3D932
:10088000032006E14FF4C671884800F0C1FDC0E7BF
:100890000025D0E7844A136843F480731360FFF7A0
:1008A000F7FD0646804B1B6813F4807FC8D1FFF725
:1008B000EFFD801B0228F5D90320EAE0794A136F87
:1008C00043F001031367C9E7764B1A6F42F0040245
:1008D0001A671A6F42F001021A67BFE7FFF7D8FDE7
:1008E0000646704B1B6F13F0020F08D0FFF7D0FDC8
:1008F000801B41F288339842F3D90320C9E0002DD0
:100900003ED1A369022B41D8A369002B00F0C0801F
:10091000644A926802F00C02082A00F09380022BCD
:100920007CD1E36913B1B3F5800F35D1236A3F2B36
:1009300038D8636A323BB3F5BF7F39D8A36A022B3C
:1009400008D0082B3AD84FF4A87222FA03F313F018
:10095000010F33D0E36A023B0D2B35D8544B0022F4
:100960001A66FFF795FD05464E4B1B6813F0007F96
:1009700030D0FFF78DFD401B0228F5D9032088E019
:10098000484A136C23F080531364BAE740F2CF1146
:10099000464800F03DFDB7E74FF4EC71434800F0E6
:1009A00037FDC3E740F2D911404800F031FDC0E700
:1009B0004FF4ED713D4800F02BFDBFE740F2DB1135
:1009C0003A4800F025FDC5E74FF4EE71374800F0D6
:1009D0001FFDC3E7E369226A1343626A43EA821395
:1009E000A26A5208013A43EA0243E26A43EA026316
:1009F0002C4A53602E4B01221A66FFF749FD04462C
:100A0000284B1B6813F0007F06D1FFF741FD001B48
:100A10000228F5D903203CE000203AE0244B0022D4
:100A20001A66FFF735FD04461E4B1B6813F0007F66
:100A300006D0FFF72DFD001B0228F5D9032028E082
:100A4000002026E0012B26D0164B5B6803F48001C2
:100A5000E269914221D103F03F02216A8A421ED10C
:100A6000616A47F6C0721A408A4223D103F44032C9
:100A7000A16A8A4220D103F07063E26A93421DD1D9
:100A8000002006E001207047012002E0012000E084
:100A9000002002B070BD0120FBE70120F9E7012032
:100AA000F7E700BF003802400070004078420008BD
:100AB000000047420120ECE70120EAE70120E8E7D7
:100AC00008B5334B9B6803F00C03042B5BD0082B59
:100AD0005BD12F4B5A6802F03F025B6813F4800F22
:100AE0002CD02B4B5868C0F388104FEA401CBCEB4D
:100AF000000C6EEB0E0E4FEA8E1343EA9C634FEA36
:100B00008C11B1EB0C0163EB0E03DB0043EA517374
:100B1000C90011EB000C43F10003590200234FEA16
:100B20004C2041EADC5102F0C5FC194B5B68C3F371
:100B3000014301335B00B0FBF3F027E0144B58682E
:100B4000C0F388104FEA401CBCEB000C6EEB0E0E9D
:100B50004FEA8E1343EA9C634FEA8C11B1EB0C0110
:100B600063EB0E03DB0043EA5173C90011EB000C89
:100B700043F10003990200234FEA8C2041EA9C5183
:100B800002F098FCD1E7034800E0034808BD00BF2D
:100B90000038024000127A000024F400002800F01F
:100BA000FA8070B50D4604460368013B0E2B30D821
:100BB000072D34D87C4B1B6803F00F03AB4208D2DF
:100BC000EBB2794A1370136803F00F03AB4240F0A5
:100BD000E480236813F0020F32D013F0040F04D026
:100BE000724A936843F4E0539360236813F0080F4C
:100BF00004D06E4A936843F460439360A368C3B122
:100C0000C02B16D049D8A02B13D00ED9B02B10D0A2
:100C100049E040F25121664800F0FAFBC8E740F293
:100C20005221634800F0F4FBC4E7802B01D0902BE5
:100C300039D15E4A936823F0F003A1680B439360B7
:100C4000236813F0010F48D06368032B31D8636821
:100C5000012B34D09A1E012A38D9544A126812F056
:100C6000020F00F09C8051498A6822F0030213436E
:100C70008B60FFF70DFC06464C4B9B6803F00C03A2
:100C80006268B3EB820F28D0FFF702FC801B41F2B1
:100C900088339842F0D9032070E0E02BC9D0F02BC4
:100CA000C7D0D02BC5D040F27521414800F0B0FB31
:100CB000BFE74FF41F713E4800F0AAFBC7E73B4A6D
:100CC000126812F4003FCED1012057E0374A126873
:100CD00012F0007FC7D1012050E0334B1B6803F0B6
:100CE0000F03AB4207D9EAB22F4B1A701B6803F00F
:100CF0000F03AB4255D1236813F0040F14D0E368FF
:100D00005BB1B3F5805F08D0B3F5A05F05D0B3F554
:100D1000C05F02D0B3F5E05F31D1244A936823F479
:100D2000E053E1680B439360236813F0080F15D07C
:100D300023695BB1B3F5805F08D0B3F5A05F05D040
:100D4000B3F5C05F02D0B3F5E05F1ED1174A9368D8
:100D500023F46043216943EAC1039360FFF7B0FEC7
:100D6000124B9B68C3F30313124AD35CD840124B57
:100D70001860124B1868FFF74BFB002070BD40F263
:100D8000BA210B4800F044FBC7E740F2C1210848F4
:100D900000F03EFBDAE7012070470120EEE701207A
:100DA000ECE70120EAE700BF003C024000380240C7
:100DB00078420008484400080C0000200800002089
:100DC000014B1868704700BF0C00002000B583B0CD
:100DD0008C461946134652B1074A53B1019300920B
:100DE00063460246054800F033F900F00BF8044A68
:100DF000F3E7034BF2E700BFA8420008B84200083F
:100E00008444000808B5034800F03CF9012000F0D4
:100E100025F800BFE842000808B503460C4A1268EE
:100E20005AB10B4A1068033323F003030344094A01
:100E3000934206D8064A136008BD054A0649116068
:100E4000EFE702F0B5FC0C2303604FF0FF30F3E74F
:100E5000B800002000FC01205030012000B530B95E
:100E6000044D182420462946ABBE0446FEE7024D39
:100E7000F7E700BF26000200230002002DE9F04141
:100E800084B0234F01970326039600230293012485
:100E900001AD20462946ABBE80461E4BC3F80080FC
:100EA000019703960423029320462946ABBE804651
:100EB000194BC3F80080019703960823029320463C
:100EC0002946ABBE0446154B1C60B4F1FF3F01D070
:100ED00000230AE0104B1A68104B1A60F8E7104A1A
:100EE0004FF0FF3142F833100133132BF7DD0C4B79
:100EF000084A12681A6000225A6007490968996016
:100F0000DA600649096819615A6104B0BDE8F081E8
:100F1000FC4200083C010020400100203801002074
:100F2000440100202DE9F04383B0814688462A4BD6
:100F300000934F23019315276C4638462146ABBEDC
:100F40000746AFBB244B002283F84F20009A3E4651
:100F50003C463D4607E001321E46204B43F8252023
:100F600001350124013292F90030FBB164B91C490A
:100F7000C9560029F6DB092BF4D0082D16DC222BEC
:100F8000E9D0272BE9D1E6E736B19E42EAD100232A
:100F900013703E463C46E5E71149C956002901DB7E
:100FA000092BDFD1002313703446DBE73DB900E0A5
:100FB0000025094B00221A70084A13600135074BBF
:100FC000002243F82520C9F80050C8F80030FFF788
:100FD00055FF03B0BDE8F083BC0000200C010020E9
:100FE000894500082DE9F04385B004460F46435675
:100FF0003BBB042528462146ABBE0546384605B016
:10100000BDE8F08314F901CB03F110026A4402F841
:1010100010CC0133AB42F5D310336B44002203F8FC
:10102000102C4FF00408E94640464946ABBE8046C6
:10103000761B002EE2D03546102E28BF1025002347
:10104000E8E70E46F5E708B5FFF7CCFF08BD00005E
:101050000FB400B583B004AB53F8042B0193802187
:10106000074802F001FD002804DC03B05DF804EB42
:1010700004B0704701460248FFF7E5FFF5E700BFFF
:10108000E401002010B5044602F0BAFC01462046F7
:10109000FFF7D9FF01210248FFF7D5FF10BD00BFC0
:1010A00030450008F8B504460D4617461E46274849
:1010B000FFF7CEFF21682648FFF7CAFF6168254881
:1010C000FFF7C6FFA1682448FFF7C2FFE168234885
:1010D000FFF7BEFF21692248FFF7BAFF6169214887
:1010E000FFF7B6FFA1692048FFF7B2FFE1691F488B
:1010F000FFF7AEFF1E48FFF7ABFF29461D48FFF77D
:10110000A7FF1D4CE16A1D48FFF7A2FF216B1C4899
:10111000FFF79EFFE16B1B48FFF79AFF15F0800F6A
:101120000AD115F4004F0CD11748FFF791FF06992B
:101130001648FFF78DFFF8BD39461548FFF788FFC1
:10114000EFE731461348FFF783FFEDE70043000860
:1011500010430008204300083043000840430008C3
:1011600050430008604300087043000880430008B3
:10117000904300089C43000800ED00E0AC430008E9
:10118000BC430008CC430008FC43000804440008AA
:10119000DC430008EC43000838B583691B888B42A8
:1011A00001D0002038BD044603684568013B302B60
:1011B00069D8DFE803F046211C1C5E30332D191975
:1011C00068191919191936192468192768396868AE
:1011D000686868686868686868686868686868688F
:1011E00068686868681919004FF0FF330360A369E5
:1011F0000233A3610120D5E700230360F7E7002352
:101200000360F4E700232B606B60AB60EB60EEE7FC
:1012100000230360EBE7AB680360E8E700230360AB
:10122000E5E700230360E2E7BFF34F8F1749CA6881
:1012300002F4E062164B1343CB60BFF34F8F00BF45
:10124000FDE71449286802F0D1FB40B96B6813B977
:1012500001232360CBE7042B05D0082B06D04FF0E9
:10126000FF332360C3E702232360C0E70323236027
:10127000BDE72B68023B012B02D9AB680360B6E7E0
:1012800000230360B3E700208CE700BF00ED00E01F
:101290000400FA05FC42000808B500F009F8024A0B
:1012A000024B9A6008BD00BF0000000800ED00E09E
:1012B000024B4FF000629A60704700BF00ED00E003
:1012C000224B9B6803F00C03042B14D0082B16D080
:1012D0001BB11F4B1F4A1A6002E01D4B1D4A1A60CA
:1012E0001A4B9B68C3F303131B4AD15C184A13685B
:1012F000CB4013607047164B184A1A60F0E7134B47
:1013000059685A6802F03F0211F4800F13D0134B52
:10131000B3FBF2F30D4A5268C2F3881202FB03F3E7
:101320000A4A5268C2F3014201325200B3FBF2F39F
:10133000074A1360D4E7074BB3FBF2F3034A526842
:10134000C2F3881202FB03F3EAE700BF0038024051
:101350000C0000200024F4004844000800127A0029
:1013600030B595B000240194224B1A6C42F08052A3
:101370001A641B6C03F080530193019B02941E4B73
:101380001A6842F480421A601B6803F48043029397
:10139000029B012308934FF4803309934FF4800399
:1013A0000F93082310934FF4A873119302251295FD
:1013B000072313930E9508A8FFF706F90F2303934D
:1013C000049505944FF4A05306934FF4805307936C
:1013D000052103A8FFF7E2FBFFF7F2FC074BA3FB95
:1013E00000308009FFF7BEF80420FFF7CFF815B0F2
:1013F00030BD00BF0038024000700040D34D621085
:1014000008B5FFF72BF8FFF7ABFFFFF759FF08BD53
:1014100008B50A4601460248FFF71AFEFEE700BF7C
:101420005844000800B58FB003E0114A1368013337
:10143000136000234FF47A7219460E48006800F0DA
:10144000BEFF0128F5D101F0A5FA02460A4901A81C
:1014500002F0ACFA0023642201A90848006800F0F9
:1014600084FE0028E1D0064A136801331360E0E7E8
:1014700088020020700200208844000864020020D6
:101480009002002000B58FB003E0114A13680133C9
:10149000136000234FF47A7219460E48006800F07A
:1014A0008EFF0128F5D101F075FA02460A4901A81C
:1014B00002F07CFA00231A4601A90848006800F0EF
:1014C00054FE0028E1D0064A136801331360E0E7B8
:1014D000880200207802002088440008640200206E
:1014E0009002002000B58FB000234FF47A721946A5
:1014F0000C48006800F063FF0128F5D10A4B18681A
:101500000028F1D00023642201A900F058FF01282F
:10151000EAD101A8FFF7B6FD044A1368013313604E
:10152000E2E700BF68020020640200208C02002075
:1015300000B583B002F0ECF9114B1A68114B53F867
:101540002230114951F822209B1A013390FBF3F10C
:1015500003FB110002440D4B1A6064230093002327
:1015600004210B48006801F037FE00231A46194693
:101570000848006800F0F9FD03B05DF804FB00BF07
:10158000940200202C000020140000208002002083
:10159000740200207002002000B583B002F0B8F998
:1015A000114B1A68114B53F82230114951F822207F
:1015B0009B1A013390FBF3F103FB110002440D4B26
:1015C0001A6064230093002304210B48006801F093
:1015D00003FE00231A4619460848006800F0C5FDBE
:1015E00003B05DF804FB00BF940200202C00002033
:1015F00014000020840200207C02002078020020D9
:1016000010B582B0204B1B6883B900211F4B1960B5
:101610001F4B19601F4B19601F4B186800F02EFDFF
:10162000194B1B68052B0FDC02B010BD174B196856
:101630001A48FFF70DFD164B19681948FFF708FD0A
:101640001848FFF705FDE0E71748FFF701FD002404
:1016500000942346224605211448006801F0BCFD91
:1016600000942346224605211148006801F0B4FD8C
:1016700000942346224605210E48006801F0ACFD87
:1016800001F06EF9D0E700BF940200209002002024
:10169000880200208C020020640200208C44000894
:1016A000BC440008F04400083445000874020020DF
:1016B0007C0200206C02002008B50A4B1B68B3F5C1
:1016C000FA7F07D000231A4619460748006800F041
:1016D0004CFD08BD054A136801331360FFF790FF06
:1016E000F0E700BF8C020020680200209402002076
:1016F0002DE9F04782B002F00BF9684F3B68684D66
:1017000055F82320674C54F82330D31A013390FB4B
:10171000F3F103FB11000244634E326002F0F8F86B
:101720003B6855F8232054F82330D31A013390FB3B
:10173000F3F103FB11000244DFF8C8A1CAF800204E
:101740005A4F00250195012400942B464FF47A72DC
:101750003946574801F090F8019500942B464FF414
:101760007A723946534801F087F8019502270097AD
:101770002B464FF47A725049504801F07DF8316899
:101780004FF47A7909FB01F1DFF87C81A8FB013184
:101790004B4B00932346224689094A4801F002FD3B
:1017A000494E3060DAF8001009FB01F1A8FB013165
:1017B000464B0093234622468909454801F0F2FC36
:1017C000444B1860444B196809FB01F1A8FB0181E7
:1017D000424B0093234622468909414801F0E2FC2E
:1017E000404B186003222946204600F09AFC3E4BED
:1017F000186003222946204600F093FC3B4B1860FA
:1018000003222946204600F08CFC394B18602A46FA
:101810003221384600F085FC364B1860346854B3EA
:101820002C4B1B683BB32F4B1B6823B301F0B2F862
:10183000024600952B460121204601F0CDFC2E4B9F
:101840001860244B1C6801F0A5F8024600952B4651
:101850000121204601F0C0FC284B1860214B1C6878
:1018600001F098F8024600952B460121204601F030
:10187000B3FC234B1860204B1B68012B03D00020C6
:1018800002B0BDE8F0871D4B1B68012BF7D11C4B44
:101890001B68012BF3D101F021F8F0E7940200203E
:1018A0002C00002014000020800200204445000885
:1018B00025140008851400084C450008E5140008AC
:1018C00031150008584500087402002099150008D9
:1018D000604500087C02002010000020B9160008B6
:1018E000684500086C020020700200207802002089
:1018F0006802002064020020980200209C02002060
:10190000A002002084020020D34D6210FEE7FEE713
:1019100000B583B000F026F90190019B03B05DF89B
:1019200004FB704770470000124A12F0070F1ED0E8
:10193000D11D21F00701C1F5963313440A460E4824
:101940000260002141601344083B23F007030B4869
:10195000036059601960991A51601360084B19604F
:10196000084B1960084B4FF000421A6070474FF463
:101970009633E4E7A8020020B42E0120A402002040
:10198000B02E0120AC2E0120A82E0120164B1A46A5
:101990001B688342FBD3516802EB010C844509D0DC
:1019A000416800EB010C634509D00360904219D0F7
:1019B000106070474068014451601046F0E710B471
:1019C0000A4C2468A3420BD05B6819444160136839
:1019D0001B680360904200D010605DF8044B7047B4
:1019E0000460F7E7704700BFB42E0120A402002076
:1019F00070B5054600F0C6FF394B1B689BB1394BEB
:101A00001B681D4212D135B1083515F0070F02D001
:101A100025F007050835D5B1334B1B68AB421AD307
:101A2000324A14681DE0FFF77FFFE8E701F04CF849
:101A30000026FFF76BFF16F0070F4FD04FF0500353
:101A400083F31188BFF36F8FBFF34F8FFEE701F071
:101A50003BF80026EDE701F037F80026E9E72246DB
:101A60001C466368AB4202D22368002BF7D11C4BA3
:101A70001B68A34214D01668083623681360636895
:101A80005B1B102B14D9601910F0070F0CD04FF00E
:101A9000500383F31188BFF36F8FBFF34F8FFEE7BF
:101AA00001F012F80026C4E743606560FFF76EFF9F
:101AB00062680D490B689B1A0B600D4909688B42DF
:101AC00001D20B490B60074B1B6813436360002373
:101AD000236000F0F9FF002EADD1AAE7304670BDBB
:101AE000A4020020A82E0120AC2E0120B42E01203B
:101AF000B02E012080B338B50446A0F1080550F897
:101B0000043C164A1268134208D14FF0500383F385
:101B10001188BFF36F8FBFF34F8FFEE750F8081C9B
:101B200041B14FF0500383F31188BFF36F8FBFF3C0
:101B30004F8FFEE723EA020340F8043C00F022FF47
:101B400054F8041C064A13680B4413602846FFF738
:101B50001DFF00F0B9FF38BD704700BFA82E01205F
:101B6000AC2E0120014B1868704700BFAC2E01203D
:101B70000B4B1B68B3F1FF3F08D04FF0500383F3CA
:101B80001188BFF36F8FBFF34F8FFEE74FF0500305
:101B900083F31188BFF36F8FBFF34F8FFEE700BF52
:101BA0004400002006480068006880F3088862B698
:101BB00061B6BFF34F8FBFF36F8F00DF00BF000030
:101BC00008ED00E04FF0807340F8043C21F0010183
:101BD00040F8081C054B40F80C3C40F8202C6FF0F6
:101BE000020340F8243C4438704700BF711B0008D2
:101BF000074B19680868B0E8F04F80F30988BFF315
:101C00006F8F4FF0000080F311887047AFF30080B2
:101C1000042F0120074B1B68B3F57A7F08D04FF0E3
:101C2000500383F31188BFF36F8FBFF34F8FFEE72D
:101C3000704700BF440000204FF0500383F3118829
:101C4000BFF36F8FBFF34F8F0B4A136801331360DD
:101C5000012B00D070474FF0E023D3F8043D13F080
:101C6000FF0FF7D04FF0500383F31188BFF36F8F4E
:101C7000BFF34F8FFEE700BF44000020094B1B68F5
:101C800043B94FF0500383F31188BFF36F8FBFF355
:101C90004F8FFEE7013B034A13600BB983F31188B2
:101CA000704700BF4400002000000000000000005A
:101CB000EFF30980BFF36F8F154B1A681EF0100FFA
:101CC00008BF20ED108A20E9F04F10604DF8043D68
:101CD0004FF0500080F31188BFF34F8FBFF36F8F29
:101CE00000F0B4FF4FF0000080F3118808BC1968C1
:101CF0000868B0E8F04F1EF0100F08BFB0EC108A73
:101D000080F30988BFF36F8F704700BFAFF3008087
:101D1000042F012008B54FF0500383F31188BFF35F
:101D20006F8FBFF34F8F00F03BFE28B14FF0E023E1
:101D30004FF08052C3F8042D002383F3118808BDAF
:101D4000064B1B68064AA2FB03239B09013B4FF08D
:101D5000E022536107231361704700BF0C0000208D
:101D6000D34D62104FF0E023D3F8002D344B9A424C
:101D70001CD04FF0E023D3F8002D324B9A421ED0F6
:101D800010B582B0304B1A78D2B20192FF221A708D
:101D90001B78DBB28DF803309DF8033003F050035D
:101DA0002A4A13702A4B07221A601BE04FF0500397
:101DB00083F31188BFF36F8FBFF34F8FFEE74FF0B0
:101DC000500383F31188BFF36F8FBFF34F8FFEE78C
:101DD0001F4A1368013B13609DF803305B00DBB2C0
:101DE0008DF803309DF8033013F0800FF0D1184ABE
:101DF00013681B02136003F4E0631360019BDBB202
:101E0000114A13704FF0E024D4F8203D43F47003DE
:101E1000C4F8203DD4F8203D43F07043C4F8203D81
:101E2000FFF78EFF0B4B00221A60D4F8343F43F0CB
:101E30004043C4F8343FFFF7B5FEFFF799FE00BFFB
:101E400071C20F4170C20F4100E400E0BC2E0120BE
:101E5000C02E012044000020EFF305830F2B0FD983
:101E6000114A9B5CDBB2114A12789A4208D94FF0B2
:101E7000500383F31188BFF36F8FBFF34F8FFEE7DB
:101E80004FF0E023D3F80C3D03F4E063084A1268F6
:101E9000934208D94FF0500383F31188BFF36F8F3B
:101EA000BFF34F8FFEE77047F0E300E0BC2E012048
:101EB000C02E012000F1080343604FF0FF32826022
:101EC000C360036100230360704700230361704710
:101ED00043684B609A688A60516099600861036842
:101EE00001330360704730B40D68B5F1FF3F11D086
:101EF00000F108031C465B681A68AA42FAD96368B5
:101F00004B6099608C606160086103680133036015
:101F100030BC70470469F2E70369416882688A60EF
:101F2000416851605A68824205D0002202611868F7
:101F300001381860704782685A60F6E710B50446A9
:101F4000FFF77AFEA26BE36B9A4204D00024FFF7FE
:101F500095FE204610BD0124F9E710B50446FFF7B1
:101F60006BFEA36B23B90124FFF788FE204610BD4A
:101F70000024F9E770B504461546866B026C5AB921
:101F800003681BB100200136A66370BD406800F0F5
:101F9000F9FF00236360F6E76DB9806801F00EFC7D
:101FA000226CA3681344A3606268934219D3236828
:101FB000A3602846E7E7C06801F000FC226C5142AC
:101FC000E3689B1AE3602268934202D263680B4481
:101FD000E360022D01D00020D5E726B1013E0020AC
:101FE000D1E72846CFE70020CDE70346026C6AB16F
:101FF00010B50846D9681144D9605C68A14201D384
:102000001968D960D96801F0D9FB10BD704738B59F
:102010000546FFF711FE95F8454064B201E0013C2A
:1020200064B2002C0ADD6B6A43B105F1240000F0B4
:10203000A7FE0028F3D000F03FFFF0E7FF2385F86C
:102040004530FFF71BFEFFF7F7FD95F8444064B2FB
:1020500001E0013C64B2002C0ADD2B6943B105F1BB
:10206000100000F08DFE0028F3D000F025FFF0E70F
:10207000FF2385F84430FFF701FE38BD38B5E0B1E5
:102080000D460446FFF7D8FD2368E26B216C01FB87
:10209000023060600020A063A360013A02FB0133BC
:1020A000E360FF2384F8443084F84530FDB92369A8
:1020B00063B9FFF7E3FD012038BD4FF0500383F310
:1020C0001188BFF36F8FBFF34F8FFEE704F110004D
:1020D00000F056FE0028ECD04FF0E0234FF0805285
:1020E000C3F8042DBFF34F8FBFF36F8FE1E704F107
:1020F0001000FFF7DFFE04F12400FFF7DBFED8E756
:1021000038B51D46049C0B4649B92460E06323643E
:1021100001212046FFF7B2FF84F84C5038BD226001
:10212000F4E740B94FF0500383F31188BFF36F8F8A
:10213000BFF34F8FFEE7F0B583B00C461546064659
:1021400089B101FB00F05030FFF752FC074638B16F
:1021500000902B4600F1500221463046FFF7D0FF99
:10216000384603B0F0BD0846EDE7F0B585B0019202
:1021700088B10F461D460446B1B1022D20D1E36B54
:10218000012B1DD04FF0500383F31188BFF36F8FE5
:10219000BFF34F8FFEE74FF0500383F31188BFF377
:1021A0006F8FBFF34F8FFEE7036C002BE5D04FF02E
:1021B000500383F31188BFF36F8FBFF34F8FFEE798
:1021C00000F080FE064658B9019B002B48D04FF026
:1021D000500383F31188BFF36F8FBFF34F8FFEE778
:1021E00000263DE02A4639462046FFF7C3FE636AD3
:1021F0007BB948B14FF0E0234FF08052C3F8042D73
:10220000BFF34F8FBFF36F8FFFF738FD012005B08D
:10221000F0BD04F1240000F0B3FD0028F4D04FF02D
:10222000E0234FF08052C3F8042DBFF34F8FBFF36C
:102230006F8FE9E7FFF722FD0020E8E702A800F032
:10224000E5FD012619E0002384F8443021E0002355
:1022500084F8453023E02046FFF7D9FE00F034FC37
:10226000FFF7EAFCA26BE36B9A42BBD3022DB9D015
:10227000019B002BDED0002EE0D0FFF7FFFC00F02A
:1022800081FBFFF7D9FC94F8442052B2B2F1FF3F32
:10229000D9D094F8452052B2B2F1FF3FD7D0FFF722
:1022A000EDFC01A902A800F0C7FDD8B92046FFF750
:1022B00045FE0028CFD0019904F1100000F02CFD5C
:1022C0002046FFF7A4FE00F0FFFB0028C8D14FF026
:1022D000E0234FF08052C3F8042DBFF34F8FBFF3BC
:1022E0006F8FBDE72046FFF792FE00F0EDFB002068
:1022F0008DE72DE9F84390B10F4616461C4605467A
:10230000B1B1022C20D1EB6B012B1DD04FF050034B
:1023100083F31188BFF36F8FBFF34F8FFEE74FF04A
:10232000500383F31188BFF36F8FBFF34F8FFEE726
:10233000036C002BE5D04FF0500383F31188BFF3FB
:102340006F8FBFF34F8FFEE7FFF786FDEFF3118826
:102350004FF0500383F31188BFF36F8FBFF34F8F9C
:10236000AA6BEB6B9A4206D3022C04D0002088F3B0
:102370001188BDE8F88395F845904FFA89F922460F
:1023800039462846FFF7F6FDB9F1FF3F06D009F1BF
:1023900001035BB285F845300120E8E76B6A0BB9B1
:1023A0000120E4E705F1240000F0EAFC18B126B1B1
:1023B00001203060DBE70120D9E70120D7E72DE9D4
:1023C000F04184B00192A0B10E4698460446C9B1CE
:1023D00000F078FD054608BB019B002B00F08780CC
:1023E0004FF0500383F31188BFF36F8FBFF34F8F0C
:1023F000FEE74FF0500383F31188BFF36F8FBFF3F5
:102400004F8FFEE7036C002BE2D04FF0500383F3B5
:102410001188BFF36F8FBFF34F8FFEE7002566E093
:10242000E56831462046FFF7E0FDB8F1000F20D106
:102430007B1EA36323683BB123694BB9FFF71EFCE6
:10244000012004B0BDE8F08100F0F4FD6060F3E726
:1024500004F1100000F094FC0028EFD04FF0E023CE
:102460004FF08052C3F8042DBFF34F8FBFF36F8F2F
:10247000E4E7E560636A002BE0D004F1240000F09B
:102480007FFC0028DAD04FF0E0234FF08052C3F8F1
:10249000042DBFF34F8FBFF36F8FCFE7FFF7EEFB36
:1024A0000020CEE702A800F0B1FC012529E00023BE
:1024B00084F8443031E0002384F8453033E0FFF7FE
:1024C000BBFB606800F00EFDFFF7D8FB3BE0204649
:1024D000FFF79DFD00F0F8FA09E02046FFF797FDB1
:1024E00000F0F2FA2046FFF738FD002842D1FFF74E
:1024F000A3FBA76B002F93D1019B002BCED0002D07
:10250000D0D0FFF7BBFB00F03DFAFFF795FB94F846
:10251000442052B2B2F1FF3FC9D094F8452052B2E4
:10252000B2F1FF3FC7D0FFF7A9FB01A902A800F055
:1025300083FC0028D1D12046FFF70FFD0028C6D02C
:102540002368002BBBD0019904F1240000F0E4FBC8
:102550002046FFF75CFD00F0B7FA0028C7D14FF026
:10256000E0234FF08052C3F8042DBFF34F8FBFF329
:102570006F8FBCE7002064E70023072B0CD8074AC5
:1025800052F833200AB10133F7E7044A42F8331016
:1025900002EBC30250607047704700BFC42E012099
:1025A00070B504460D461646FFF746FB94F84430D6
:1025B0005BB2B3F1FF3F0DD094F845305BB2B3F19D
:1025C000FF3F0BD0FFF75AFBA36B5BB12046FFF731
:1025D0001EFD70BD002384F84430EDE7002384F82D
:1025E0004530EFE73246294604F1240000F0ACFB09
:1025F000ECE70000084B1B681B6823B9074B4FF042
:10260000FF321A607047044B1B68DB68DB685A684E
:10261000024B1A60704700BF082F0120B82F01201D
:1026200010B50446006BFFF765FA2046FFF762FA23
:1026300010BD2DE9F04780460D4617469946089E85
:10264000DDF824A00A9C9200A521206B01F0C4F8BB
:10265000236B07F18042013A03EB820727F007075B
:102660004FF0000CBCF1090F09D815F90C3004EB40
:102670000C0282F8343013B10CF1010CF2E70023A4
:1026800084F83D30042E00D90426E662A6640025B5
:10269000E564201DFFF719FC04F11800FFF715FC95
:1026A0002461C6F10506A6616462256584F854506C
:1026B0004A4641463846FFF785FA2060BAF1000FD6
:1026C00001D0CAF80040BDE8F087000038B500240A
:1026D00007E004EB840293000E481844FFF7EAFB7E
:1026E0000134042CF5D90C4D2846FFF7E3FB0B4CC5
:1026F0002046FFF7DFFB0A48FFF7DCFB0948FFF73E
:10270000D9FB0948FFF7D6FB084B1D60084B1C603E
:1027100038BD00BF102F01208C2F0120A02F0120D9
:10272000C02F0120EC2F0120D82F0120082F0120DD
:102730000C2F012010B50446FFF77EFA224A1368D9
:1027400001331360214B1B685BB1214B1B686BB9D4
:102750001E4B1B68DA6AE36A9A4207D81B4B1C605F
:1027600004E01A4B1C601368012B29D0194A136826
:10277000013313602364E06A01238340164A116821
:102780000B43136000EB8000211D144B03EB800012
:10279000FFF79EFBFFF772FA0D4B1B687BB10B4BEB
:1027A0001B68DA6AE36A9A4209D24FF0E0234FF0DD
:1027B0008052C3F8042DBFF34F8FBFF36F8F10BD4E
:1027C000FFF784FFD2E700BF742F0120042F012000
:1027D000D42F0120842F0120882F0120102F0120C9
:1027E00070B504460D461D4B1E681D4B186804301D
:1027F000FFF792FB48B91A4B1B68DB6A01229A402B
:1028000018490B6823EA02030B60B4F1FF3F0DD0B7
:102810003444134B1B685C60A64210D9124B1868F5
:102820000F4B19680431FFF75EFB70BD002DEFD030
:102830000B4B196804310D48FFF74AFBF5E70C4BC9
:102840001868074B19680431FFF74DFB094B1B68EB
:10285000A342EAD9074B1C60E7E700BF0030012024
:10286000042F0120882F01200C2F0120D82F0120B8
:10287000082F0120B82F01202DE9F04385B007462D
:10288000884614461E469000FFF7B2F8F0B1814624
:102890005820FFF7ADF80546A0B1C0F83090D5B18B
:1028A0000023039302950D9B01930C9B00933346E9
:1028B000224641463846FFF7BCFE2846FFF73AFF5E
:1028C000012005E04846FFF715F9E8E74FF0FF3033
:1028D00005B0BDE8F0834FF0FF30F9E700B583B0F5
:1028E000194B019300230093822218491848FFF7DF
:1028F000C3FF012807D0012808D0B0F1FF3F1AD04C
:1029000003B05DF804FB00F025FCF4E74FF0500342
:1029100083F31188BFF36F8FBFF34F8F0D4B4FF0D1
:10292000FF321A600C4B01221A600C4B00221A6015
:10293000FFF718FAE4E74FF0500383F31188BFF371
:102940006F8FBFF34F8FFEE7B42F01207045000853
:102950001D2C0008B82F0120D42F012000300120A9
:1029600008B54FF0500383F31188BFF36F8FBFF3A7
:102970004F8F034B00221A60FFF74CF908BD00BFD0
:10298000D42F0120024A136801331360704700BF3F
:10299000802F0120014B1868704700BF00300120D4
:1029A000F8B53E4B1B68002B6AD13D4B1D680135C5
:1029B0001D60C5B93B4B1B681B6843B14FF050030A
:1029C00083F31188BFF36F8FBFF34F8FFEE7354A54
:1029D0001168354B186810601960344A1368013368
:1029E0001360FFF707FE324B1B68AB423ED900274E
:1029F000304B1B68DB6A03EB83039A002E4B9B581A
:102A0000012B00D901272D4B1B68002B3FD1FEF76E
:102A100088FF3CE00127234B1B681B6843B3214B15
:102A20001B68DB68DC6863689D4226D3261D304640
:102A3000FFF772FAA36A1BB104F11800FFF76CFAF2
:102A4000E36A01229A401E49086802430A6003EBC8
:102A500083039A00314618481044FFF739FAE26AB6
:102A6000144B1B68DB6A9A42D4D2D4E70027D2E722
:102A70000F4B4FF0FF321A60BAE70D4A1360B7E709
:102A80000E4A136801331360FEF74BFF00270D4B0E
:102A90001B6803B101273846F8BD00BF802F012015
:102AA00000300120082F01200C2F0120BC2F012015
:102AB000B82F0120042F0120102F01207C2F01208E
:102AC000882F01200430012038B5354B1B6843B9ED
:102AD0004FF0500383F31188BFF36F8FBFF34F8F15
:102AE000FEE7FFF7A9F82E4B1A68013A1A601B6837
:102AF000002B4FD12B4B1B680BB900244BE000245B
:102B0000294B1B681BB3284BDB68DC6804F11800F9
:102B1000FFF702FA251D2846FFF7FEF9E06A0123B8
:102B20008340224A11680B43136000EB8000294662
:102B30001F4B03EB8000FFF7CBF9E26A1D4B1B68CC
:102B4000DB6A9A42DCD31C4B01221A60D8E70CB135
:102B5000FFF750FD194B1C6884B9174B1C68D4B1A2
:102B60004FF0E0234FF08052C3F8042DBFF34F8F96
:102B7000BFF36F8F01240EE0013C07D0FFF710FF79
:102B80000028F9D00C4B01221A60F5E70B4B00220C
:102B90001A60E2E70024FFF771F8204638BD00BF55
:102BA000802F0120742F0120C02F0120882F0120A9
:102BB000102F0120042F0120043001207C2F012040
:102BC000134B1B6813B310B5FFF7DCFE114B1C68E9
:102BD000FFF77AFF24B90E4B1B68002BF4D110BD10
:102BE000FFF72AF80B4BDB68DC68201DFFF794F930
:102BF000094A1368013B1360054A1368013B1360DF
:102C0000FFF73CF82046FFF70BFDE4E7704700BFF5
:102C1000782F0120EC2F0120742F012008B50BE044
:102C20004FF0E0234FF08052C3F8042DBFF34F8FD5
:102C3000BFF36F8FFEF76CFEFFF7C2FF024B1B68FE
:102C4000012BEDD8F6E700BF102F012008B52D4B62
:102C50001B681BB12C4B01221A6008BD2A4B0022B5
:102C60001A602A4B1B681B6B1A68B2F1A53F03D18F
:102C70005A68B2F1A53F1BD0244B1868196834314B
:102C8000FEF745FE224B1B68B3FA83F3DBB2C3F1B8
:102C90001F0303EB83018A001E498A588AB94FF04B
:102CA000500383F31188BFF36F8FBFF34F8FFEE79D
:102CB0009A68B2F1A53FDFD1DB68B3F1A53FDBD164
:102CC000E0E7144903EB830082000A44506840683F
:102CD000506003EB830C4FEA8C02083211448842A7
:102CE00009D003EB83039A000A4B13445B68DA684C
:102CF000064B1A60B1E7406862469100054A0A44F3
:102D00005060EEE7802F012004300120042F0120C5
:102D1000882F0120102F012058B110B50C46094A08
:102D200011681831FFF7DFF801212046FFF758FD41
:102D300010BD4FF0500383F31188BFF36F8FBFF3C3
:102D40004F8FFEE7042F012038B570B10D461446B1
:102D50000A4A11681831FFF7BBF80CB14FF0FF3584
:102D600021462846FFF73CFD38BD4FF0500383F362
:102D70001188BFF36F8FBFF34F8FFEE7042F012041
:102D800038B5C368DC6824B304F118052846FFF79A
:102D9000C3F8184B1B682BBB251D2846FFF7BCF852
:102DA000E06A01238340144A11680B43136000EB6F
:102DB00080002946114B03EB8000FFF789F8E26A97
:102DC0000F4B1B68DB6A9A4211D901200D4B18602A
:102DD00038BD4FF0500383F31188BFF36F8FBFF3FB
:102DE0004F8FFEE729460848FFF772F8E7E7002013
:102DF000EEE700BF802F0120882F0120102F012037
:102E0000042F012004300120C02F012030B1084AD6
:102E100012680260074A1268426070474FF0500320
:102E200083F31188BFF36F8FBFF34F8FFEE700BFAF
:102E3000BC2F01200030012038B5C0B10C4605463A
:102E4000F1B1FEF7F9FE1A4B1A682368B3F1FF3FA0
:102E500027D0286817490968884202D069689142DA
:102E600024D96968501A834213D801241AE04FF01C
:102E7000500383F31188BFF36F8FBFF34F8FFEE7CB
:102E80004FF0500383F31188BFF36F8FBFF34F8F61
:102E9000FEE7891A0B4423602846FFF7B7FF00249A
:102EA00000E00024FEF7EAFE204638BD0124F9E7E1
:102EB00000300120BC2F0120014B01221A60704715
:102EC00004300120054B1B6833B1054B1B680BB167
:102ED000002070470220704701207047D42F012046
:102EE000802F0120002845D038B50446C36A224A05
:102EF0001268D26A934214D28269002A05DB1E4A04
:102F00001268D26AC2F105028261616903EB830330
:102F10001A4A02EB8303994204D0174B1B68DB6A01
:102F2000E36238BD251D2846FEF7F6FF90B1124B2F
:102F30001B68D86AE06201238340114A11680B4381
:102F4000136000EB800029460C4B03EB8000FEF77A
:102F5000BFFFE6E7E36A03EB8301084A52F821204A
:102F6000002AE4D101229A4005490B6823EA0203B2
:102F70000B60DCE7704700BF042F0120102F0120F9
:102F8000882F012000284BD038B50446264B1B68FB
:102F9000834208D04FF0500383F31188BFF36F8F43
:102FA000BFF34F8FFEE7C36C43B94FF0500383F379
:102FB0001188BFF36F8FBFF34F8FFEE7013BC364F0
:102FC000C16A826C91422DD00BB1002038BD051D25
:102FD0002846FEF7A1FF68B9E36A03EB8301134AB1
:102FE00052F8212032B901229A4011490B6823EA94
:102FF00002030B60A06CE062C0F10503A361012431
:1030000004FA00F30A4A11680B43136000EB8000D6
:103010002946064B03EB8000FEF75AFF2046D5E712
:10302000002070470020D1E7042F0120102F01203D
:10303000882F0120054B1B6823B1044B1A68D36C01
:103040000133D364014B1868704700BF042F01207F
:10305000064B1A681368B3FA83F35B09036013B96C
:10306000D368186870470020704700BF08300120FF
:1030700008B54160006191420CD8D21A83699A4226
:1030800001D3012008BD011D094B1868FEF72BFF75
:103090000020F7E79A4201D2994206D2011D054B62
:1030A0001868FEF720FF0020ECE70120EAE700BFE8
:1030B0000C3001200830012038B5FEF7BDFD0F4B64
:1030C0001B6813B1FEF7DAFD38BD0D4D2846FEF73B
:1030D000F1FE0C4C2046FEF7EDFE0B4B1D600B4B3A
:1030E0001C6000220C210A20FFF71BF8034B18601C
:1030F0000028E7D00649FFF73FFAE3E73C3001201C
:103100001030012024300120083001200C30012033
:10311000784500082DE9F041079F41B94FF0500371
:1031200083F31188BFF36F8FBFF34F8FFEE706461F
:1031300015461C4688465FB1FFF7BEFF3E60C7F8E4
:103140001880FD613C62069B7B62381DFEF7BDFE68
:10315000BDE8F08100B583B0FFF7AEFF0D4B1B68F3
:103160005BB10D4B01930223009300234FF4827255
:103170000A490B48FFF780FB40B94FF0500383F337
:103180001188BFF36F8FBFF34F8FFEE703B05DF879
:1031900004FB00BF3C300120403001208045000886
:1031A0009D3400082DE9F04182B00446884615465A
:1031B0001E462C20FEF71CFC074640B10190089BE0
:1031C000009333462A4641462046FFF7A3FF384680
:1031D00002B0BDE8F0810000B8B19C460346184833
:1031E000006858B300B585B0019102920393052998
:1031F0001CDCFFF767FE022810D000231A4601A945
:103200000F480068FEF7B1FF15E04FF0500383F35D
:103210001188BFF36F8FBFF34F8FFEE70023069A2D
:1032200001A907480068FEF7A0FF04E000236246FA
:1032300001A9FFF75EF805B05DF804FB00207047B8
:103240003C30012070B582B01A4B1B681A6852B32B
:10325000DB681E68DC68251D2846FEF75DFE636A94
:1032600020469847E369012BEED1A36933449E427F
:1032700007D26360246129460E4B1868FEF733FEBF
:10328000E2E7002100910B4632462046FFF7A4FFFB
:103290000028D9D14FF0500383F31188BFF36F8F0B
:1032A000BFF34F8FFEE7044A1068024908601360BD
:1032B00002B070BD083001200C30012038B5054641
:1032C000FFF768FB0446074B1B68834205D80023C1
:1032D0002B60044B1C60204638BDFFF7B3FF012371
:1032E0002B60F6E73830012070B582B006460D46F7
:1032F00014490968C968CC68201DFEF70DFEE16914
:10330000012904D0636A2046984702B070BDA169C4
:1033100033462A4631442046FFF7AAFE0028F1D062
:10332000002100910B4632462046FFF755FF00284A
:10333000E8D14FF0500383F31188BFF36F8FBFF3D1
:103340004F8FFEE70830012070B582B006460C466C
:10335000FFF718FB01A8FFF7B1FF019B2BBB054648
:103360000CB9B0421AD22CB1124B1B681C68B4FACB
:1033700084F464092246711B0F4B1868FFF710F99B
:10338000FFF7A2FB98B94FF0E0234FF08052C3F84B
:10339000042DBFF34F8FBFF36F8F08E0FFF794FB4F
:1033A00029463046FFF7A0FF01E0FFF78DFB02B092
:1033B00070BD00BF0C3001203C30012010B586B03C
:1033C00000231A4603A934480068FEF7F8FF0028D6
:1033D00060D0039B002BF3DB059C636913B1201DB8
:1033E000FEF79AFD02A8FFF769FF039B092BE7D8B8
:1033F00001A252F823F000BF213400082134000854
:1034000021340008C1330008673400088D340008F7
:103410002134000821340008C13300086734000853
:10342000049BA169024619442046FFF721FE0028AB
:10343000C6D0636A20469847E369012BC0D1A269D0
:10344000002100910B46049802442046FFF7C4FE79
:103450000028B5D14FF0500383F31188BFF36F8F6D
:10346000BFF34F8FFEE70499A16131B103460246D5
:1034700001442046FFF7FCFDA2E74FF0500383F321
:103480001188BFF36F8FBFF34F8FFEE72046FEF723
:1034900031FB95E706B010BD3C30012000B583B08C
:1034A00001A8FFF7D5FD0199FFF74EFFFFF786FF53
:1034B000F6E7000053B94AB9002908BF00281CBF2D
:1034C0004FF0FF314FF0FF3000F070B9ADF1080C54
:1034D0006DE904CE00F006F8DDF804E0DDE9022332
:1034E00004B070472DE9F047089E0D4604460F468C
:1034F000002B4AD18A42944665D9B2FA82F343B18D
:1035000002FA03FCC3F120029F4020FA02F21743A3
:103510009C404FEA1C4E1FFA8CF5B7FBFEF1220CC3
:103520000EFB117742EA074201FB05F090420AD9EF
:103530001CEB020201F1FF3780F01C81904240F247
:10354000198102396244121AA4B2B2FBFEF00EFBDA
:10355000102244EA024400FB05F5A5420AD91CEBFF
:10356000040400F1FF3280F00781A54240F204819B
:103570006444023840EA0140641B00211EB1DC4073
:103580000023C6E90043BDE8F0878B4208D9002E2E
:1035900000F0ED800021C6E900050846BDE8F0878F
:1035A000B3FA83F1002949D1AB4202D3824200F23F
:1035B000F880841A65EB030201201746002EE2D042
:1035C000C6E90047DFE702B9FFDEB2FA82F3002B5B
:1035D00040F090808A1A4FEA1C471FFA8CFE0121A6
:1035E000B2FBF7F507FB1520220C42EA00420EFB66
:1035F00005F0904208D91CEB020205F1FF3802D217
:10360000904200F2CB804546121AA4B2B2FBF7F00A
:1036100007FB102244EA02440EFB00FEA64508D92F
:103620001CEB040400F1FF3202D2A64500F2BB807D
:103630001046A4EB0E0440EA05409FE7C1F12007C5
:103640008B4022FA07FC4CEA030C05FA01F420FA3D
:1036500007F3FD404FEA1C492343B5FBF9F81FFA75
:103660008CFE09FB18551C0C44EA054408FB0EF5BA
:10367000A54202FA01F200FA01F00BD91CEB040496
:1036800008F1FF3A80F08880A54240F28580A8F1D9
:1036900002086444641B9DB2B4FBF9F309FB1344B4
:1036A00045EA044403FB0EFEA64508D91CEB0404BE
:1036B00003F1FF356CD2A6456AD9023B644443EA64
:1036C0000843A3FB0295A4EB0E04AC42C846AE46E9
:1036D00056D353D056B1B0EB080264EB0E0404FA93
:1036E00007F7CA40CC401743C6E9007418460021CA
:1036F000BDE8F087C3F1200102FA03FC20FA01F2D1
:1037000025FA01F19D402A434FEA1C471FFA8CFE1F
:10371000B1FBF7F007FB1015110C41EA054100FB66
:103720000EF58D4204FA03F408D91CEB010100F1F7
:10373000FF382FD28D422DD902386144491B92B2F5
:10374000B1FBF7F507FB151142EA014205FB0EF14B
:10375000914208D91CEB020205F1FF3816D29142C2
:1037600014D9023D6244521A45EA004138E7314615
:10377000304608E73946E6E61046FBE64845A9D25A
:10378000B9EB020865EB0C0E013BA3E74546EAE7FF
:103790002B4694E74046D1E7D0467BE7023D6244A2
:1037A00032E708460AE76444023842E7704700BF40
:1037B000014B1868704700BF480000200A4491423E
:1037C00000F1FF3300D1704710B511F8014B03F839
:1037D000014F9142F9D110BD02440346934200D1FA
:1037E000704703F8011BF9E770B50E4E0C463168BF
:1037F000054611B900F0CAF830602146284600F0AD
:10380000C5F8431C0AD0C41C24F00304A04207D00E
:10381000211A284600F0BAF8013001D14FF0FF34E8
:10382000204670BD483001202DE9F041CD1C25F027
:10383000030508350C2D38BF0C25002D074601DB8C
:10384000A94205D90C233B6000263046BDE8F08133
:103850002E4E00F01FF933681C4634BB294638460B
:10386000FFF7C2FF431C04464DD134682646002EA4
:1038700040D123683146384604EB030800F086F84F
:1038800080453AD123680335ED1A25F00305083544
:103890000C2D38BF0C2529463846FFF7A5FF01300F
:1038A0002BD023682B4423600EE02268521B1ED4C9
:1038B0000B2A16D96119A342256018BF59606368A5
:1038C00008BF316062514B60384604F10B0600F0CE
:1038D000E2F826F00706231DF21AB6D09B1BA35070
:1038E000B3E76268A3420CBF32605A60ECE723463C
:1038F0006468B2E734467668B9E70C233B60384623
:1039000000F0C9F8A1E72560DEE700BF44300120E0
:10391000164B10B51C68A36BB3B9182000F0B2F8B1
:103920000246A06320B9124B12484E21FDF74EFA11
:103930001149124BC0E90013114B83600B238381A3
:1039400000210120C2E90401A16B0E480B694C69FA
:103950000D4A584302FB0400A3FB0232013340EB43
:103960000200C1E9043020F0004010BD48000020F2
:10397000EC460008034700080E33CDAB34126DE669
:10398000ECDE05002DF451582D7F954C38B5064DD1
:103990000023044608462B60FDF73EFA431C02D183
:1039A0002B6803B1236038BD340100200EB400B58C
:1039B0009CB01DAB029006906FF000410948079142
:1039C0000491094953F8042B05910068019302A959
:1039D00000F008F9029B00221A701CB05DF804EB9D
:1039E00003B07047480000200802FFFF10F8012BC9
:1039F00011F8013B012A28BF9A42F7D0D01A70472C
:103A0000034613F8012B002AFBD1181A013870471E
:103A100030B51446002C9BB005461A4605DA8B23B8
:103A200003604FF0FF301BB030BD4FF40273ADF8B0
:103A30000C3014BF04F1FF332346029305934FF675
:103A4000FF7300910491ADF80E3069461E9B00F0A3
:103A5000C9F8431CBCBF8B232B60002CE3D0009B18
:103A600000221A70DFE7000007B5009313460A46EC
:103A7000014603480068FFF7CBFF03B05DF804FB85
:103A800048000020024B01461868FFF7CDBE00BF7A
:103A9000480000207047704737B5002944D051F8DE
:103AA000043C0190002BA1F10404B8BFE418FFF717
:103AB000F1FF1E4A0198136833B96360146003B0C4
:103AC000BDE83040FFF7E7BFA34208D92568611978
:103AD0008B4201BF19685B6849192160EDE71A46FE
:103AE0005B680BB1A342FAD911685518A5420BD1F6
:103AF000246821445418A3421160E0D11C685B681B
:103B000053600C441460DAE702D90C230360D6E753
:103B1000256861198B4204BF19685B68636004BF44
:103B2000491921605460CAE703B030BD4430012018
:103B30002DE9F0478E681F46BE420B6882460C4650
:103B400090462CD88A8912F4906F26D0656909694D
:103B500005EB4505A3EB010905EBD5757B1C4B4433
:103B60006D109D4238BF1D46530527D52946FFF7E6
:103B70005BFE064660B321694A46FFF71FFEA38934
:103B800023F4906343F08003A381266165614E4472
:103B9000A5EB09052660A5603E46BE4200D93E461B
:103BA00020683246414600F0FBFAA3689B1BA360E5
:103BB0002368334423600020BDE8F0872A4600F0E4
:103BC00009FB06460028E0D121695046FFF764FF53
:103BD0000C23CAF80030A38943F04003A3814FF0BF
:103BE000FF30E9E72DE9F04F98468B891B069DB021
:103BF00007460D4614460ED50B6963B94021FFF701
:103C000013FE2860286120B90C233B604FF0FF3081
:103C1000D0E040236B610023099320238DF82930E5
:103C2000CDF80C803023DFF8A4818DF82A304FF0D6
:103C3000010923469A4613F8012B0AB1252AF9D126
:103C4000BAEB040B0BD05B46224629463846FFF7F9
:103C50006FFF013000F0A980099A5A4409929AF83E
:103C60000030002B00F0A18000234FF0FF32CDE99F
:103C700005230AF1010A049307938DF853301A9330
:103C80005446052214F8011B504800F039FA049AF2
:103C9000D8B9D00644BF20238DF85330110744BF54
:103CA0002B238DF853309AF800302A2B15D0079A21
:103CB000544600204FF00A0C214611F8013B303BDE
:103CC000092B4DD9B0B1079214E0A0EB080309FA13
:103CD00003F313430493A246D2E7039B191D1B6809
:103CE0000391002BBBBF5B4242F002020793079394
:103CF000B8BF049223782E2B0CD163782A2B34D1B1
:103D0000039B1A1D1B680392002BB8BF4FF0FF33B3
:103D100002340593DFF8C4A021780322504600F056
:103D2000EFF938B1049BA0EB0A0040228240134314
:103D30000134049314F8011B25488DF8281006223D
:103D400000F0DEF9002838D0224B1BBB039B073361
:103D500023F0070308330393099B3344099368E76F
:103D60000CFB02320C460120A6E700230134059328
:103D700019464FF00A0C204610F8012B303A092A58
:103D800003D9002BC6D00591C4E70CFB01210446E2
:103D90000123F0E703AB00932A460F4B04A93846F2
:103DA000AFF30080421C0646D6D1AB895B063FF5D7
:103DB0002DAF09981DB0BDE8F08F03AB00932A46E4
:103DC000054B04A9384600F079F8EBE76E47000888
:103DD0007847000800000000313B000874470008E5
:103DE0002DE9F047164699468A680B69DDF8208070
:103DF0009342B8BF1346336091F8432007460C4600
:103E00000AB1013333602368990642BF3368023335
:103E10003360256815F0060506D104F1190AE36838
:103E200032689B1AAB4226DC94F84320131E2268AA
:103E300018BF012392062BD404F1430249463846A9
:103E4000C04701301ED02368226903F00603042B0B
:103E500002BFE5683368ED1AA3680CBF25EAE57573
:103E600000259342C4BF9B1AED1800261A34B542B0
:103E70001AD1002008E00123524649463846C0477F
:103E8000013003D14FF0FF30BDE8F0870135C6E7C0
:103E9000E1185A1C302081F84300224494F8451060
:103EA00082F843100233C7E70123224649463846C9
:103EB000C0470130E6D00136D9E700002DE9FF47C1
:103EC0000F7E0C9D782F914680460C469A4601F154
:103ED000430207D8622F0AD8002F00F0D480582F51
:103EE00000F0C08004F1420584F842703AE0A7F186
:103EF0006303152BF6D801A151F823F0553F0008B4
:103F0000693F0008E53E0008E53E0008E53E000880
:103F1000E53E0008693F0008E53E0008E53E000870
:103F2000E53E0008E53E00086D400008953F0008AA
:103F300027400008E53E0008E53E00088F400008E5
:103F4000E53E0008953F0008E53E0008E53E000814
:103F50002F4000082B681A1D1B682A6004F14205D7
:103F600084F8423001239FE020682B68070603F1A4
:103F70000401296001D51E6803E04606FBD5B3F9AC
:103F80000060002E03DA2D23764284F843305A482D
:103F90000A2312E02B682068191D2960050601D547
:103FA0001E6802E04106FBD51E8853486F2F0CBFE8
:103FB00008230A23002184F843106568A560002DBA
:103FC000A2BF216821F0040121600EB9002D4BD061
:103FD0001546B6FBF3F103FB1167C75D05F8017DDC
:103FE0003746BB420E46F4D9082B0BD12368DE07B7
:103FF00008D5236961689942DEBF302305F8013C8A
:1040000005F1FF35521B2261CDF800A04B4603AAF3
:1040100021464046FFF7E4FE01304AD14FF0FF3021
:1040200004B0BDE8F087236843F0200323603348E1
:10403000782784F84570236829681F0651F8046BB7
:1040400002D45F0648BFB6B2DF0748BF43F0200383
:10405000296048BF23601EB9236823F02003236032
:104060001023A7E72448E4E71546BDE72B68266838
:104070006169181D286035061B6801D5196002E0CA
:104080007006FBD51980002323611546BCE72B6819
:104090001A1D2A601D6862680021284600F030F869
:1040A00008B1401B606063682361002384F84330DB
:1040B000AAE723692A4649464046D0470130ADD099
:1040C00023689B0713D4E068039B9842B8BF184647
:1040D000A6E70123324649464046D04701309DD0ED
:1040E0000135E36803995B1AAB42F2DCEBE700258C
:1040F00004F11906F5E700BF7F4700089047000864
:1041000001F0FF01102A2BDB10F0070F08D010F888
:10411000013B013A8B422DD010F0070F42B3F6D18C
:10412000F0B441EA012141EA014122F007047FF0A5
:1041300000070023F0E80256083C85EA010586EAFC
:10414000010685FA47F5A3FA87F586FA47F6A5FA38
:1041500087F68EB9EED1F0BC01F0FF0102F0070244
:1041600032B110F8013B013A83EA010313B1F8D1EF
:104170000020704701387047002D06BF35460338D0
:10418000073815F0010F07D1013015F4807F02BF09
:10419000013015F4C03F0130F0BC0138704700BF5A
:1041A000884210B501EB020402D98442234607D8A5
:1041B000431EA14208D011F8012B03F8012FF8E7A4
:1041C000024401468A4200D110BD13F8014D02F8A5
:1041D000014DF7E72DE9F041804614460E4621B91E
:1041E000BDE8F0411146FFF71FBB2AB9FFF754FCA9
:1041F00025462846BDE8F08100F01BF884420746BA
:1042000002D8B4EB500F12D821464046FFF70CFB02
:1042100005460028EDD0BC422246314628BF3A462A
:10422000FFF7CCFA31464046FFF736FCE1E735466A
:10423000DFE751F8043C181F002BBCBF0B58C01817
:10424000704700002E2E2F73797374656D2F737273
:10425000632F73746D333266342D68616C2F737401
:104260006D3332663478785F68616C5F636F727447
:1042700065782E63000000002E2E2F73797374650D
:104280006D2F7372632F73746D333266342D6861D2
:104290006C2F73746D3332663478785F68616C5F4D
:1042A0007263632E630000002C2066756E63746970
:1042B0006F6E3A2000000000617373657274696F5D
:1042C0006E2022257322206661696C65643A20663F
:1042D000696C6520222573222C206C696E6520256F
:1042E00064257325730A000061626F727428292C9B
:1042F0002065786974696E672E2E2E003A747400FA
:10430000537461636B206672616D653A0A00000048
:10431000205230203D2020253038580A000000006F
:10432000205231203D2020253038580A000000005E
:10433000205232203D2020253038580A000000004D
:10434000205233203D2020253038580A000000003C
:1043500020523132203D20253038580A000000001C
:10436000204C52203D2020253038580A0000000003
:10437000205043203D2020253038580A00000000FE
:1043800020505352203D20253038580A00000000AC
:104390004653522F4641523A0A00000020434653EA
:1043A00052203D2020253038580A0000204846532E
:1043B00052203D2020253038580A00002044465322
:1043C00052203D2020253038580A00002041465315
:1043D00052203D2020253038580A0000204D4D46FF
:1043E0004152203D20253038580A000020424641E5
:1043F00052203D2020253038580A00004D69736353
:104400000A000000204C522F4558435F5245545536
:10441000524E3D20253038580A0000005B4861723A
:10442000644661756C745D0A000000005B42757340
:104430004661756C745D0A005B5573616765466122
:10444000756C745D0A0000000000000000000000B0
:10445000010203040607080957726F6E6720706136
:1044600072616D65746572732076616C75653A2052
:1044700066696C65202573206F6E206C696E6520FF
:1044800025640D0A0000000020257500546F74613A
:104490006C206E756D626572206F66207375636344
:1044A00065737366756C6C792073656E74206D65C9
:1044B0007373616765733A2025640A00546F7461F1
:1044C0006C206E756D626572206F66207375636314
:1044D00065737366756C6C7920626C6F636B656471
:1044E000206D657373616765733A2025640A000067
:1044F0002A2A2A2A2A2A2A2A2A2A2A2A2A2A2A2A1C
:104500002A2A2A2A2A2A2A2A2A2A2A2A2A2A2A2A0B
:104510002A2A2A2A2A2A2A2A2A2A2A2A2A2A2A2AFB
:104520002A2A2A2A2A2A2A2A2A2A2A2A2A2A2A2AEB
:104530000A00000047616D65204F766572212121D8
:104540002121000053656E64657200005265636549
:10455000697665720000000054696D657231000073
:1045600054696D657232000054696D6572330000E4
:1045700049444C4500000000546D72510000000099
:10458000546D7220537663000020202020202020CC
:1045900020202828282828202020202020202020F3
:1045A0002020202020202020208810101010101003
:1045B000101010101010101010040404040404044F
:1045C00004040410101010101010414141414141E9
:1045D00001010101010101010101010101010101CB
:1045E00001010101101010101010424242424242DB
:1045F000020202020202020202020202020202029B
:104600000202020210101010200000000000000042
:10461000000000000000000000000000000000009A
:10462000000000000000000000000000000000008A
:10463000000000000000000000000000000000007A
:10464000000000000000000000000000000000006A
:10465000000000000000000000000000000000005A
:10466000000000000000000000000000000000004A
:10467000000000000000000000000000000000003A
:10468000000000000000000000000000000000002A
:10469000000000000000000000000000000000001A
:1046A000000000000000000000000000000000000A
:1046B00000000000000000000000000000000000FA
:1046C00000000000000000000000000000000000EA
:1046D00000000000000000000000000000000000DA
:1046E0000000000000000000000000005245454EA0
:1046F00054206D616C6C6F632073756363656564D2
:104700006564002F486F73742F686F6D652F696C37
:10471000672F576F726B2F61726D2D6E6F6E652DE7
:10472000656162692D6763632D31312E322E312D23
:10473000312E322F6C696E75782D7836342F736F69
:1047400075726365732F6E65776C69622D63796727
:1047500077696E2F6E65776C69622F6C6962632F63
:104760007374646C69622F72616E642E6300232D12
:10477000302B2000686C4C0065666745464700306A
:1047800031323334353637383941424344454600B7
:1047900030313233343536373839616263646566B7
:0147A0000018
:0847A40040EDFF7F0100000061
:1047AC007856341201FFFFFF100000000024F400C3
:1047BC006400000032000000500000006E00000099
:1047CC008C000000AA000000C80000009600000049
:1047DC00C8000000FA0000002C0100005E0100007F
:1047EC0090010000AAAAAAAA4C0000200000000018
:1047FC00AC460008CC4600088C46000800000000BF
:10480C00000000000000000000000000000000009C
:10481C00000000000000000000000000000000008C
:10482C00000000000000000000000000000000007C
:10483C00000000000000000000000000000000006C
:10484C0000000000000000000000000032547698C8
:040000050800018965
:00000001FF
